:100000000C9472020C949A020C949A020C949A0228
:100010000C949A020C949A020C949A020C949A02F0
:100020000C949A020C949A020C949A020C94700408
:100030000C949A020C949A020C949A020C949A02D0
:100040000C941B040C949A020C949A020C949A023D
:100050000C949A020C949A020C949A020C949A02B0
:100060000C949A020C949A020101FF030101F70318
:100070006C0068000500893008023802497868146D
:1000800000000500380168010000175344001613F2
:100090007800161314001510200015201000540AC3
:1000A00003E181867F3E186D830F0F0E018386600A
:1000B00033186DC3198F1803C38E6033186DE33086
:1000C000CF1803C39E603630CDE360CF3006C79EA5
:1000D0007E3E30CDB360CF300CC6F6603330D9B63B
:1000E00060CF33CFCCF66061B0DB1E60CF30D86C10
:1000F000E6C061B0DB1E618F19986CC6C063B19B0E
:100100000E330F0FB078C6FF7E1F1B061E0F402454
:100110000000000000000000FFFFFFFFFFFFFFFEE8
:1001200080000000000000028F9E79F000000002B5
:100130008CDB6D9803CC8F028CDB6D98021E8802DD
:100140008F9E79F1E21288028CD861B0021E88027B
:100150008FCE39B803D2EF428000000000000002C9
:100160008000000000000002FFFFFFFFFFFFFFFE16
:1001700000000000000000000000000000019930B5
:1001800000000000000266CC000000000004000631
:10019000000000000004804200000000000E080182
:1001A00000000078001FFFF10000018600FFFFF94A
:1001B0001D9DB13201FDDDD91559224903FDDDDE5A
:1001C0001D909279039DDDDC115DB14A039DDDDC5C
:1001D00000000186039DDDDC00000078039DDDDC6E
:1001E00000000000039DDDDC00000000039DDDDC5D
:1001F0000000000003FDDDDC0000000001FDDDDC8F
:100200000000000000FDDDDC00000000001FFFFC1E
:100210000000001005DE669C0000002AAA9F5ADC40
:1002200000000029C49F26DC00000000000FFFF83A
:100230000000000000240027002A00000000002524
:100240000028002B0044493A0044463A0054503AF2
:1002500000436F727220444900416C636F686F6C99
:1002600000450068010000F6E8DBCFC3B8AEA49BF0
:10027000928A827B746E68625C57524E4945413E59
:100280003A3734312E2C29272523210A0A153A49D9
:10029000676E6F7265006D560A0A504C45415345B2
:1002A000205455524E204F464620004C4F57204276
:1002B00041545445525921200003053F213F120863
:1002C000120A100A0E1C0E0C1E0C141A14161F16FD
:1002D0001E131E1E1B1E1E1F1E3F213F3A2F3A17C4
:1002E0003D173F213F181F02040A041F0E04040E8D
:1002F0001F0A1F0A0E0E1F04110E2E252E2F2A2E46
:10030000262929021F02081F08150E04040E150EC7
:1003100015151B151B040604040C0400000000172F
:10032000000300031F0A1F16371A1904130A153A8F
:10033000000300000E11110E000A040A040E04004E
:1003400030000404040010001804031F111F121FC2
:10035000101D151711151F07041F17151D1F151D3B
:1003600001011F1F151F17151F000A00003200048E
:100370000A110A0A0A110A040115020E11171E05B4
:100380001E1F150A0E110A1F110E1F15111F050140
:100390000E111D1F041F111F1108100F1F041B1F1A
:1003A00010101F061F1E040F0E110E1F09060E113E
:1003B0002E1F051A121509011F011F101F0F180FFC
:1003C0001F0C1F1B041B031C03191513001F110313
:1003D0000418111F000201022020200001020C124B
:1003E0001E1F120C0C12120C121F0C1A14041E05E4
:1003F000242A1E1F021C141D1020201D1F0814116A
:100400001F101E041E1E021C0C120C3E0A040C12AD
:100410003E1E040214160A020F120E101E0E100EBB
:100420001E081E120C1226281E322A26041E210027
:100430001F00211E040102013F213F172B15201030
:10044000204C4F4144455200172B16201314000A2C
:100450004E6F2053442063617264206F720A6E6F86
:10046000204C4F414445522E4845580A0A153A45FA
:10047000786974001D20466C617368696E670A2094
:10048000206C6F616465722E2E2E0A0A444F4E272F
:1004900054205455524E204F464621000000000083
:1004A00023002600290004040404040404040202B6
:1004B00002020202030303030303010204081020E3
:1004C00040800102040810200102040810200000EE
:1004D0000008000201000003040700000000000003
:1004E0000000B61511241FBECFEFD8E0DEBFCDBF90
:1004F00011E0A0E0B1E0E6E5F8E302C005900D925E
:10050000AA33B107D9F723E0AAE3B1E001C01D92F5
:10051000AB3DB207E1F712E0C2E7D2E004C0219799
:10052000FE010E948719C137D107C9F70E94C11582
:100530000C94291C0C9400006115710579F0FB01E5
:1005400001900020E9F73197AF01461B570BDC0102
:10055000ED91FC910280F381E02D099480E090E020
:100560000895833081F028F4813099F08230A1F031
:1005700008958730A9F08830B9F08430D1F48091A3
:1005800080008F7D03C0809180008F7780938000F2
:10059000089584B58F7702C084B58F7D84BD08959A
:1005A0008091B0008F7703C08091B0008F7D8093E1
:1005B000B00008951F93CF93DF93282F30E0F90107
:1005C000E253FB4F8491F901E654FB4FD491F901BA
:1005D000EA55FB4FC491CC23C9F0162F81110E941C
:1005E000B102EC2FF0E0EE0FFF1FE55CFD4FA5918F
:1005F000B4918FB7F894111105C09C91ED2FE0953F
:10060000E92302C0EC91ED2BEC938FBFDF91CF91EA
:100610001F910895CF93DF9390E0FC01E654FB4FC8
:100620002491FC01EA55FB4F8491882361F190E00D
:10063000880F991FFC01EF5CFD4FC591D491FC011F
:10064000E55CFD4FA591B491611109C09FB7F89485
:100650008881209582238883EC912E230BC0623001
:1006600061F49FB7F8943881822F80958323888323
:10067000EC912E2B2C939FBF06C08FB7F894E88186
:100680002E2B28838FBFDF91CF9108951F93CF9397
:10069000DF93182FEB0161E00E940A03209711F409
:1006A00060E004C0CF3FD10539F461E0812FDF91D4
:1006B000CF911F910C94DA02E12FF0E0E253FB4F4F
:1006C000E491E330F9F048F4E130B9F0E230A1F51B
:1006D00084B5806284BDC8BD34C0E730E9F0E8303D
:1006E00019F1E43049F580918000806280938000A8
:1006F000D0938B00C0938A0024C084B5806884BDE9
:10070000C7BD1FC080918000806880938000D09317
:100710008900C093880015C08091B00080688093E4
:10072000B000C093B3000DC08091B0008062809390
:10073000B000C093B40005C0C038D1050CF0B5CFEF
:10074000AFCFDF91CF911F9108958E3008F08E507A
:100750008770806480937C0080917A0080648093AD
:100760007A0080917A0086FDFCCF809178002091FC
:10077000790090E0922B08953FB7F89480913D0165
:1007800090913E01A0913F01B091400126B5A89BF8
:1007900005C02F3F19F00196A11DB11D3FBFBA2F13
:1007A000A92F982F8827820F911DA11DB11DBC0173
:1007B000CD0142E0660F771F881F991F4A95D1F738
:1007C00008958F929F92AF92BF92CF92DF92EF9255
:1007D000FF926B017C010E94BC034B015C01C114C0
:1007E000D104E104F104F1F00E94BC03DC01CB016F
:1007F00088199909AA09BB09883E9340A105B1054A
:1008000070F321E0C21AD108E108F10888EE880EE1
:1008100083E0981EA11CB11CC114D104E104F104B1
:1008200019F7DDCFFF90EF90DF90CF90BF90AF90A2
:100830009F908F9008951F920F920FB60F921124E0
:100840002F933F938F939F93AF93BF9380914D01CD
:1008500090914E01A0914F01B091500130913C0117
:1008600023E0230F2D3720F40196A11DB11D05C0F3
:1008700026E8230F0296A11DB11D20933C01809311
:100880004D0190934E01A0934F01B0935001809180
:100890003D0190913E01A0913F01B0914001019630
:1008A000A11DB11D80933D0190933E01A0933F0196
:1008B000B0934001BF91AF919F918F913F912F9144
:1008C0000F900FBE0F901F901895809151038823B1
:1008D00019F08091530301C080E08093B400089523
:1008E0001F920F920FB60F9211242F933F934F93A5
:1008F0005F936F937F938F939F93AF93BF93EF9388
:10090000FF9360915203662321F180913B018F5F39
:1009100080933B0190914B018917D8F0909151033E
:1009200081E089278093510310923B0180914C0113
:10093000882369F08091000193E4899F802D112420
:10094000895B809300010E945319909353030E9486
:100950006504FF91EF91BF91AF919F918F917F912E
:100960006F915F914F913F912F910F900FBE0F901C
:100970001F901895FC01643508F053C0403308F00F
:1009800050C090A1742F759575957595262F062EDC
:10099000000C330B542F57709230A1F4F901EF5A29
:1009A000FE4F84E57802E00DF11D1124808190E076
:1009B000052E02C0959587950A94E2F78095982FA9
:1009C00091700AC0933041F4848581704627409528
:1009D0004170841303C014C0911112C084E57802E1
:1009E000200D311D1124F901EF5AFE4F81E090E0F6
:1009F00001C0880F5A95EAF780959081892310C02D
:100A000084E57802200D311D1124F901EF5AFE4FC3
:100A100081E090E001C0880F5A95EAF79081892B18
:100A200080830895DF92EF92FF920F931F93CF93ED
:100A3000DF931F92CDB7DEB78C01D62EF42EE12CBA
:100A4000E21654F46E2D6D0D4F2DC80129830E94BE
:100A5000BA04E3942981F4CF0F90DF91CF911F91D5
:100A60000F91FF90EF90DF9008952F923F924F9259
:100A70005F926F927F928F929F92AF92BF92CF922E
:100A8000DF92EF92FF920F931F93CF93DF93EC01CE
:100A90006A3019F42D819885C3C06D3009F4C6C041
:100AA00038847A84D98448A083E58D150CF4A1C0DC
:100AB0008FE287150CF49DC08C8190E00197389EE1
:100AC0009001399E300D1124C9018D0D911DD7FC67
:100AD0009A95181619060CF08CC08D81839DC00163
:100AE0001124870D911D77FC9A95181619060CF0A4
:100AF00080C05D2CCD2CE62EF12CA32C032C000CF9
:100B0000BB08EC2DED190E2E000CFF0B8C8190E034
:100B1000E817F9070CF06CC00197E817F90779F0AE
:100B2000E89E9001E99E300DF89E300D1124E20FF1
:100B3000F31F8E8D9F8DE80FF91F149101C010E0F7
:100B4000072D672C262D2719022E000C330B8D81C3
:100B500090E0281739070CF048C010FF1EC081E054
:100B6000381206C0462D6C2DCE010E94BA0439C041
:100B7000202E4501800E911C07FD9A94822D022C97
:100B8000000C990B8815990564F5232D422D652DD0
:100B9000CE010E9412052394F1CF89A198A1891753
:100BA00001F188A381E0381206C0462D6C2DCE01DC
:100BB0000E94BA0415C0202E4501800E911C07FD2D
:100BC0009A94822D022C000C990B8815990544F4F7
:100BD000232D422D652DCE010E9412052394F1CFC5
:100BE00048A216956394030DADCFC394530C89CFDF
:100BF00048A228853C818985329F800D11248987F0
:100C00009F81992399F0082E000C990B44E550E040
:100C1000239F401951091124481759073CF49D811D
:100C20008A85299F800D11248A87198681E090E0AA
:100C3000DF91CF911F910F91FF90EF90DF90CF90B8
:100C4000BF90AF909F908F907F906F905F904F90EC
:100C50003F902F900895DF92EF92FF920F931F9392
:100C6000CF93DF931F92CDB7DEB78C01D62EF42E33
:100C7000E12CE21654F44E2D4F0D6D2DC801298341
:100C80000E94BA04E3942981F4CF0F90DF91CF91B1
:100C90001F910F91FF90EF90DF9008958F929F9298
:100CA000AF92BF92CF92DF92EF92FF920F931F937A
:100CB000CF93DF9382E38093D30381E090E0A0E0C1
:100CC000B0E08093CF039093D003A093D103B0936F
:100CD000D2038FEF8093C403E0E8F7E725913491C6
:100CE0002130304C09F049C0E6E9F7E7E491E093A0
:100CF000AD03E7E9F7E7E491E0935803E8E9F7E7A4
:100D0000E491E0935903E9E9F7E785919491909391
:100D10005B0380935A03EBE9F7E7859194919093F5
:100D20005D0380935C0387E080937F03EEE9F7E740
:100D3000E491E0937E03EFE9F7E7E491E093C403E5
:100D4000E0EAF7E7859194919093710380937003A3
:100D5000E2EAF7E78591949190937303809372038D
:100D6000E4EAF7E785919491909375038093740377
:100D7000E6EAF7E7859194912CC09CE39093AD034C
:100D8000109258038093590380E293E090935B03A1
:100D900080935A0384ED93E090935D0380935C030A
:100DA00087E080937F0380937E038CEA9DE090939D
:100DB0007103809370038EED9DE090937303809395
:100DC000720384E79EE090937503809374038CE331
:100DD0009FE09093770380937603C1E0C093540320
:100DE0006FEF70E085E00E94460388E080935E0329
:100DF00089E080935F0387E08093600386E08093BF
:100E00006103D4E0D093620382E08093630381E1C5
:100E1000809364030E94C0128CE39FE090936F0361
:100E200080936E03D0936D03C09378038BE080931F
:100E3000B0038DE08093AF0380E18093B1038EE037
:100E40008093B3038FE08093B203C093AA03C0934F
:100E5000C2031092C303C093A903E9EBF2E0E4914B
:100E6000EF5FE093A603EAEBF2E0E491EF5FE0933B
:100E7000A7038BEB92E09093C1038093C003CFB79D
:100E8000F89480913A01811127C0E0EBF4E084915D
:100E9000E4ECF4E09491E82FF0E0EE0FFF1FEF5C3C
:100EA000FD4FA591B491EC91E92321F461E08AE032
:100EB0000E94DA0261E08AE00E940A038CB5806138
:100EC0008CBD8CB580648CBD61E08DE00E940A030E
:100ED00061E08BE00E940A0380913A018F5F80936A
:100EE0003A01CFBF8CB58F7D8CBD8CB58C7F816076
:100EF0008CBD8DB581608DBD8CB58C608CBD61E085
:100F00008091B0030E940A0361E08091AF030E94C8
:100F10000A0361E08091B1030E940A038091B30348
:100F200018161CF461E00E940A038091B20318169F
:100F30001CF461E00E940A038091B303181674F454
:100F400060E00E94DA026AE070E080E090E00E94D7
:100F5000E10361E08091B3030E94DA028091AF0364
:100F6000082E000C990BFC01EA55FB4FE491F0E0D0
:100F7000EE0FFF1FE55CFD4F259134913093B703D1
:100F80002093B603FC01E654FB4FE491E093BD03CC
:100F90008091B003082E000C990BFC01EA55FB4F21
:100FA000E491F0E0EE0FFF1FE55CFD4F25913491D9
:100FB0003093B5032093B403FC01E654FB4FE49156
:100FC000E093BC038091B203082E000C990BFC0146
:100FD000EA55FB4FE491F0E0EE0FFF1FE55CFD4F9B
:100FE000259134913093B9032093B803FC01E65462
:100FF000FB4FE491E093BE038091B103082E000CF7
:10100000990BFC01EA55FB4FE491F0E0EE0FFF1F56
:10101000E55CFD4F259134913093BB032093BA03D7
:10102000FC01E654FB4FE491E093BF0381E20E9490
:10103000141384E10E9414138091AD0387FF03C051
:101040008FE78093AD038091AD0380680E941413F5
:1010500080E20E9414138CE00E9414130E94331348
:10106000C1E0C0937D0384E08093A10380E790E01A
:10107000909389038093880360E080E00E942714A6
:1010800061E070E083E00E9446038091B100887FB8
:1010900081608093B100F8941092800010928100DA
:1010A000109285001092840088E191E0909389006D
:1010B0008093880080918100886080938100809176
:1010C000810081608093810080916F0082608093B5
:1010D0006F0078940E94791580916A03813019F429
:1010E00010927E031CC080916D038823C9F380E0B9
:1010F0000E94A91284E790E090938703809386036F
:1011000010928C0310928B03C0937A0389E0809332
:101110008F03109292031092940310929603809181
:10112000C403882309F4EEC081E08093AA031092DF
:10113000A9031092A80310926C038093C2038093BA
:10114000C303C0E3D2E08CE0F82E01E612E0EE2407
:10115000E39499E0D92E0E941F0E8823E1F3FE014B
:101160008491882319F0C090A70301C0C12C6EE9B7
:1011700070E080E00E949F0B6EE071E08CE08C0DCF
:101180000E949F0B1092AB03F092AC0360E372E0FD
:1011900082EA93E00E94FB0D8091A603982F990F9D
:1011A000890F81958D5A8093AB038091A703982F67
:1011B000990F890F8195835D8093AC038091C5035E
:1011C00084FF03C08AE990E002C086E990E00E94B3
:1011D00073138091A603982F990F890F81958D5ACB
:1011E0008093AB038091AC038F5F8093AC038091BD
:1011F0007E03882319F082E990E002C08EE890E037
:101200000E9473138091A603982F990F890F8195DF
:101210008D5A8093AB038091AC038F5F8093AC03B6
:101220008AE890E00E94731380916A03813039F557
:1012300080917E038F5F60917F0387FD09C0082E38
:10124000000C990B70E06F5F7F4F0E945F19682F51
:1012500060937E0380E00E94A9121093870300939D
:10126000860310928C0310928B03E0927A03D09243
:101270008F03109292031092940310929603809120
:1012800069038130A9F08091C403482F50E060E0E9
:1012900070E08090C5039090C603A090C703B09003
:1012A000C80384169506A606B70620F18F3F11F1F4
:1012B0008FEF8093C40380E00E94A91280E00E9417
:1012C000A91282E890E0909387038093860310929E
:1012D0008C0310928B0381E080937A0399E09093C2
:1012E0008F031092920310929403109296038093AE
:1012F0006C0308C080916B03813009F02CCF0E94F1
:10130000861329CFDF91CF911F910F91FF90EF901E
:10131000DF90CF90BF90AF909F908F900895CF9225
:10132000DF92EF92FF920F931F93CF93DF936C01A5
:101330007A018B01C0E0D0E0CE15DF0589F0D8013D
:101340006D918D01D601ED91FC910190F081E02D20
:10135000C6010995892B11F47E0102C02196ECCFBC
:10136000C701DF91CF911F910F91FF90EF90DF9018
:10137000CF900895CF92DF92EF92FF920F931F9339
:10138000CF93DF93C82FD62F142F422F022E000C9D
:10139000550B461B510967FD539557FF03C05195E7
:1013A00041955109812F012E000C990B8C1B91093D
:1013B000C7FD939597FF03C0919581959109DD2411
:1013C000D3948417950714F0D12C06C0812F122FC7
:1013D000282F8C2FCD2FD82F1C1734F48D2FD22FE0
:1013E000282F8C2FC12F182FE12EEC1A822F022EBE
:1013F000000C990B8D1B9109D7FD939597FF03C0A6
:10140000919581959109F82E0E2DE7FE02C001E01D
:101410000E0D0595D2171CF0CC24CA9411C0CC2413
:10142000C3940EC0DD2079F04C2F6D2F82EA93E03B
:101430000E94BA040F1907FF02C0DC0D0E0DCF5F2A
:101440001C1784F703C04D2F6C2FF0CFDF91CF9185
:101450001F910F91FF90EF90DF90CF900895EF9242
:10146000FF920F931F93CF93DF93C82FD62F142F84
:10147000F22E0E94BA092E2D402F6F2D812F0E942F
:10148000BA092D2F4C2F6E2D802FDF91CF911F91F8
:101490000F91FF90EF900C94BA092F923F924F92C8
:1014A0005F926F927F928F929F92AF92BF92CF92F4
:1014B000DF92EF92FF920F931F93CF93DF93CDB7FD
:1014C000DEB729970FB6F894DEBF0FBECDBF282E2A
:1014D0006987F42E322E261754F4E6160CF0E3C07A
:1014E0003E2CE62E2987F02E022D242E08C0E2166F
:1014F00074F4832D3E2CE82E8F2DF02E082F398585
:1015000033162CF43986332E822D2F2CF82E398564
:101510003E112FC0F21434F0822D2F140CF48F2DB5
:10152000F22C282E0F1524F020160CF4202E0F2D4F
:1015300021E0220D201B4985602F82EA93E0299645
:101540000FB6F894DEBF0FBECDBFDF91CF911F91D4
:101550000F91FF90EF90DF90CF90BF90AF909F9052
:101560008F907F906F905F904F903F902F900C9452
:101570001205822D022C000C990B2F2D0F2C000C24
:10158000330BA901481B590B5C834B83832C032C21
:10159000000C99085985A52E550FBB08F401EA19CE
:1015A000FB09FE83ED83002E000C110B6801C81AA5
:1015B000D90A8E2D0E2C000C990BAC014A195B092F
:1015C0005A834983021B130BFC01E819F909F887B8
:1015D000EF833E103A94412C512C612C712C3985AB
:1015E00033162CF1C3016D817E810E945F19322D6B
:1015F000360FC20169817A810E945F19222D260F60
:101600004B815C81640E751E4C0C5D1C23171CF411
:10161000832F322F282F2F5F231B4985632F82EAC8
:1016200093E00E94120539853F5F3987D8CF832F19
:10163000330F990B9C0128193909029F4001039F20
:10164000900C129F900C11248A199B09C89E50017E
:10165000C99EB00CD89EB00C11243985E31644F114
:10166000C4016F8178850E945F193F2D360FC50137
:1016700069817A810E945F19222D260F800E911EAA
:10168000AC0CBD1C23171CF4832F322F282F2F5F87
:10169000231B4985632F82EA93E00E941205398556
:1016A0003F5F3987DACF39842987F22C242E2FCF58
:1016B00029960FB6F894DEBF0FBECDBFDF91CF9154
:1016C0001F910F91FF90EF90DF90CF90BF90AF9060
:1016D0009F908F907F906F905F904F903F902F9052
:1016E00008950F931F93CF93DF93C82F162FD42FF6
:1016F000022F242F462F682F82EA93E00E941205C2
:101700004FEF400F410F2D2F6C2F82EA93E00E9484
:101710001205202F412F6C2F82EA93E00E942B06A6
:10172000D1506D2F6C0F202F412F82EA93E0DF9173
:10173000CF911F910F910C942B060E94C91B8F9281
:101740009F92AF92BF92CF92DF92EF92FF920F9350
:101750001F93CF93DF93FB0124913196C490F090B7
:10176000C203022E000C330B121613060CF0D7C066
:1017700080330CF0D4C0482F082E000C550BFA0112
:10178000EC0DF11DC7FCFA951E161F060CF0C7C024
:101790006E5F7F4FD901179693E0B595A7959A95FF
:1017A000E1F787FF0BC0C80EA49FC001A59F900D55
:1017B000B49F900D1124681B790B80E04C2D0C2CEC
:1017C000000C550B480F511D87FD5A9541335105AB
:1017D0001CF090E3C92EC81A2535310514F024E514
:1017E00030E01091AE031827982F977031E001C0B8
:1017F000330F9A95EAF7859585958595F4E58F02DF
:10180000C00111248F5A9E4F00E00C2C000CDD0803
:10181000BB24B394402F50E04C155D050CF07FC005
:10182000FB01E490F1E0FF1218C0FB01EC0140E87D
:10183000542F5E2119F05881532B588350E0559551
:1018400047954115510519F43196E49040E82196E9
:101850005C2F581B521760F359C0F1101AC0A32E09
:10186000A094FB01EC0140E8542F5E2119F058814F
:101870005A21588350E0559547954115510519F463
:101880003196E49040E821965C2F581B521760F384
:101890003DC043E0F41223C0932E9094FB01EC0171
:1018A00040E8A82E8C2E881A542F5E2141F0812604
:1018B000588180FE02C0532B01C05921588350E04B
:1018C000559547954115510519F43196E49040E836
:1018D00021965C2F5A19521728F31B2517C0FB01BC
:1018E000EC0140E8542F5E2119F0588153275883AA
:1018F00050E0559547954115510519F43196E490FE
:1019000040E821965C2F581B521760F3330F19F4EF
:101910008C5A9F4F31E00F5F6A0F7B1F7BCFDF91A7
:10192000CF911F910F91FF90EF90DF90CF90BF90DC
:10193000AF909F908F9008954F925F926F927F9299
:10194000EF92FF920F931F93CF93DF93CDB7DEB744
:10195000A1970FB6F894DEBF0FBECDBF7C01FA0190
:10196000CB0119A2223008F42AE08E010F5D1F4F2F
:10197000422E512C612C712CBF01A30192010E94B7
:10198000F81BF901CA01015011096A3014F4605DB5
:1019900001C0695CD8016C93232B242B252B61F7A4
:1019A000B801C7010E949C02A1960FB6F894DEBF51
:1019B0000FBECDBFDF91CF911F910F91FF90EF90A0
:1019C0007F906F905F904F900895DC01ED91FC91B6
:1019D0000190F081E02D0994CF92DF92EF92FF9277
:1019E000CF93DF936C01990FEE08FF08F7FE16C046
:1019F0006DE282EA93E00E94E50CEC014427552752
:101A0000BA014C195D096E097F092AE082EA93E068
:101A10000E949C0C7C01EC0EFD1E08C02AE0B70160
:101A2000A60182EA93E00E949C0C7C0163E271E0D3
:101A300082EA93E00E949C028E0D9F1DDF91CF9160
:101A4000FF90EF90DF90CF9008954F925F926F924A
:101A50007F928F929F92AF92BF92CF92DF92EF923E
:101A6000FF926B017C019B01AC010E94C41B882387
:101A700019F066E271E01AC046015701E894B7F820
:101A80002FEF3FEF4FE75FE7C501B4010E94C41B92
:101A9000811112C02FEF3FEF4FE75FE7C501B4019F
:101AA0000E94FA19181644F46AE271E082EA93E09F
:101AB0000E949C027C018AC02FEF3FEF4FE75FE45A
:101AC000C701B6010E94521B18161CF46EE271E0A9
:101AD000EDCF2FEF3FEF4FE75FECC701B6010E945C
:101AE000FA1987FDF3CF20E030E0A901C701B60164
:101AF0000E94FA1987FF0BC06DE282EA93E00E9410
:101B0000E50C5C01F7FAF094F7F8F09402C0A12C10
:101B1000B12C2AE037ED43EA5BE3C701B6010E942E
:101B20008E192B013C010E94711A6B017C010E94ED
:101B3000A01A9B01AC01C301B2010E948D192B01B7
:101B40003C012AE0B701A60182EA93E00E949C0CC6
:101B50007C01EA0CFB1C6EE282EA93E00E94E50C39
:101B6000E80EF91E20E030E040E251E4C301B2018A
:101B70000E94571B2B013C010E94711A4B01A12CA2
:101B8000B12C2AE0B501A40182EA93E00E949C0CEA
:101B9000E80EF91EC501B4010E94A01A9B01AC0118
:101BA000C301B2010E948D1920E030E040E251E40F
:101BB0000E94571B0E94711AAB0160E070E02AE09E
:101BC00082EA93E00E949C0CE80EF91E63E271E049
:101BD00082EA93E00E949C028E0D9F1DFF90EF9081
:101BE000DF90CF90BF90AF909F908F907F906F903D
:101BF0005F904F900895EF92FF920F931F93CF93B2
:101C0000DF938C017B01C0E0D0E0F701EC0FFD1FFA
:101C10006491662361F0D801ED91FC910190F0810F
:101C2000E02DC8010995892B11F02196EECFCE0148
:101C3000DF91CF911F910F91FF90EF9008954F92F8
:101C40005F926F927F928F929F92AF92BF92CF924C
:101C5000DF92EF92FF920F931F93CF93DF9300D009
:101C600000D01F92CDB7DEB74091D4035091D50379
:101C70006091D6037091D7032FB7F89480914D01EE
:101C800090914E01A0914F01B09150012FBF481B80
:101C9000590B6A0B7B0B8091D30390E0A0E0B0E07E
:101CA0000091CF031091D0032091D1033091D20342
:101CB00084179507A607B70730F40115110521050C
:101CC000310509F04FC3012B022B032B09F048C348
:101CD00080916B0381508E3FC0F580916A03813003
:101CE000C9F580917E038F5F60917F0387FD09C0F6
:101CF000082E000C990B70E06F5F7F4F0E945F19F8
:101D0000682F60937E0388E494E09093D9038093D6
:101D1000D80388E48093DA0380E00E94A91281E668
:101D200092E0909387038093860310928C03109225
:101D30008B0381E080937A0389E080938F03109274
:101D40009203109294031092960380916B0381503A
:101D50008E3F70F480916903813009F0AFC38BE34B
:101D600094E09093D9038093D80388E48093DA03B6
:101D700080E00E94BD1380917A03882309F4ABC0F0
:101D800080918E038111A7C0809186039091870373
:101D9000E0918B03F0918C03EE0FFF1FE80FF91F0A
:101DA0004591549141155105F1F420918A03222364
:101DB00031F010928C0310928B03FC0112C0109230
:101DC0007A0380917903882341F080E00E94BD135B
:101DD000E0918B03F0918C032DC080E00E9494125F
:101DE0007AC0459154919A01369527953695279555
:101DF00040FF51C0CA01B6E096958795BA95E1F7C4
:101E00008F71952F96959695969590512F702230BB
:101E100071F1F8F4211117C08B3008F08AE080933B
:101E20008F03E0918B03F0918C033196F0938C0338
:101E3000E0938B03EE0FFF1F809186039091870341
:101E4000E80FF91FCECF213061F760E00E94271420
:101E5000E8CF2330B1F0243021F720917D03829F19
:101E6000802D11248093960390939703DACF2091CD
:101E70007D03829F802D112480939203909393037E
:101E8000D0CF20917D03829F802D112480939403D5
:101E900090939503C6CF2F7320938D0380917D037C
:101EA000859F802D112480938E0310929E031092A3
:101EB0009D0310929C0381E08093900380935103D3
:101EC0001092910380918B0390918C0301969093D3
:101ED0008C0380938B0380919003882309F4EEC0D8
:101EE00080918E03811103C00E949412E7C081503B
:101EF00080938E0380919E03811146C020919C03A4
:101F000030919D032F5F3F4FC901880F991FE091CA
:101F10009803F0919903E80FF91F65917491862F4A
:101F2000877080939F03AB0163E0569547956A9550
:101F3000E1F7CA0196958795972F96959695909378
:101F4000A0038F7390917D03899F802D112480932E
:101F50009E03417040934C0130939D0320939C035A
:101F600080919A0390E02817390770F020919B0325
:101F7000222339F0821B910990939D0380939C0347
:101F800003C080E00E94941280919E038150809350
:101F90009E038091910321E0280F209391034091AB
:101FA0008D033091A003340F80918503380F309357
:101FB0007B0360919403662371F070E0822F022E00
:101FC000000C990B0E945F1980919503869F300D3C
:101FD000112430937B0380917B0390E0849664E22C
:101FE00070E00E945F1980937B0330918F033093E0
:101FF0007C0360919203662381F0062E000C770B20
:10200000822F022E000C990B0E945F19809193037E
:10201000869F300D112430937C03609196036623D4
:10202000A1F0822F220F990B70E00E945F19CB0163
:1020300062E070E00E945F192091970390917C0309
:10204000289F900D112490937C0380917C034F3343
:1020500041F08A300CF089E087FD80E080937C03BA
:1020600002C010927C03F894E0917B03F0E0E95900
:10207000FD4FE491E0934B0130917C032091A1034B
:1020800032039001112440919F034203C001439FFA
:10209000900D112400907E0302C0880F991F0A94AE
:1020A000E2F797FF02C081589F4F880F892F881F42
:1020B000990B809352038093530378948091DA03B1
:1020C000882309F499C08C3020F49CE0D92ED81ACA
:1020D00001C0D12C81E08093AA031092C203109218
:1020E000C3031091A70383E0810F3D2D311B335DA6
:1020F000032FE82E880FFF08E30EF11C37FDFA943A
:10210000802F002E000C990B8E159F055CF42EE499
:10211000402F63E082EA93E03D830E9412050F5F47
:102120003D81EECF145003E0030F212F41E0602FDB
:1021300080E50E94E014212F42E0602F83E00E949E
:10214000E01481E08093C2038093C3030091A7034E
:102150008D2D801B3DE2F32EF80E2EE44F2D63E013
:1021600082EA93E00E94120513E0100F1F0D4FEF5B
:10217000410F2EE463E082EA93E00E9412050350CF
:1021800033E0F30E202F4F2D60E082EA93E00E94AF
:102190002B06202F4F2D63E582EA93E00E942B0649
:1021A00041E06F2D83E00E94621442E06F2D80E5D4
:1021B0000E946214145044E0612F80E50E94621472
:1021C00048E0612F83E00E94621484E08093AB03B7
:1021D0008091A703D81A8D2D815D8093AC03609107
:1021E000D8037091D90382EA93E00E94FB0D80919D
:1021F000DA0381508093DA03809170039091710328
:10220000892B09F485C011E01093C2031092C30317
:102210009091A60385E5891B8093AB031092AC03D4
:1022200060916D03613009F454C030F080916C030B
:10223000653008F066C061C080E00E94A91210936A
:10224000AA03E9EBF2E0E491EF5FE093A603EAEB87
:10225000F2E0E491EF5FE093A7038BEB92E09093C1
:10226000C1038093C0031092710310927003109207
:10227000A80318EA0E941F0E8823E1F36BEA72E0BC
:1022800082EA93E00E94FB0D40916E0350916F0330
:1022900060E070E02AE082EA93E00E949C0C66E92C
:1022A00072E082EA93E00E94FB0D612F62956F70ED
:1022B00070E082EA93E00E9443156BE872E082EAE4
:1022C00093E00E94FB0D80916903813009F0FCC00E
:1022D0001FC08091C5039091C603A091C703B09120
:1022E000C8038F709927AA27BB270897A105B105B6
:1022F00010F467E009C068E707C0882349F06B5F06
:1023000003C0882329F06FE282EA93E00E94E50C83
:102310000E9433138091A80381110EC088EF91E0D1
:10232000E1E5F1E0DF019C011D9221503040E1F731
:102330001092AB031092AC030E94BC036093CF03D6
:102340007093D0038093D1039093D2032091CB0359
:102350003091CC03621B730B7093CA036093C90363
:1023600080E0CCC02FB7F89480914D0190914E0140
:10237000A0914F01B09150012FBF2091D303820F44
:10238000911DA11DB11D8093D4039093D503A093FB
:10239000D603B093D7038091C5039091C603A09153
:1023A000C703B091C8030196A11DB11D8093C50359
:1023B0009093C603A093C703B093C8031092CF03B2
:1023C0001092D0031092D1031092D2030E94BC034A
:1023D0006093CB037093CC038093CD039093CE0393
:1023E00080915503909156032FE0289F8001299FEB
:1023F000100D112485E10E94A503800F911F24E098
:10240000969587952A95E1F7909356038093550307
:1024100020915403222309F44BC060915803262FC6
:1024200030E040E050E029833A834B835C83C090E6
:102430005903D12CE12CF12C40915C0350915D03A8
:102440004A01A12CB12C20915A0330915B03290140
:10245000612C712C8217930728F09C0148175907AB
:1024600008F49A01C901A0E0B0E09C01AD01241973
:1024700035094609570969817A818B819C816C19DC
:102480007D098E099F090E944319A5019401241911
:102490003509460957090E94CE1BC20ED31EE41E01
:1024A000F51EC09257036C2D70E085E00E94460334
:1024B0000E94C0120E94791581E020C0893209F083
:1024C00057CC0E94861354CC115009F0D3CE60E053
:1024D00070E085E00E94460383B7817F846083BFFC
:1024E00083B7816083BF83B7816083BF889583B7DB
:1024F0008E7F83BF83B78E7F83BFBCCE0F900F903C
:102500000F900F900F90DF91CF911F910F91FF903F
:10251000EF90DF90CF90BF90AF909F908F907F9083
:102520006F905F904F900895811112C010929003A8
:1025300010928E0310929D0310929C0310929103AF
:102540001092530310925203109251030C9465049D
:102550000895811114C01092900310928E0310926E
:102560009D0310929C0310929103109253031092BA
:102570005203109251030E94650410927A03089549
:10258000CF92DF92EF92FF920F931F93CF93DF933F
:10259000CEE5D3E005E613E0FF24FA9497E0E92EB8
:1025A000E00E62E088810E940A03288130E0F90190
:1025B000E253FB4F8491F901E654FB4FC490F901BB
:1025C000EA55FB4FD490DD2071F081110E94B102D9
:1025D000ED2DF0E0EE0FFF1FE456FB4FA591B491F7
:1025E000EC91EC21B1F4F80180818F5F808360E091
:1025F00088810E940A0321960F5F1F4FE012D1CFFE
:10260000DF91CF911F910F91FF90EF90DF90CF90CE
:102610000895F8018081882371F3F8018F3F11F448
:102620001082E5CFF082E3CFCF93C82FF89460E01B
:102630008091B1030E94DA028091B20318161CF453
:1026400060E00E94DA02CEBD00000DB407FEFDCFAF
:102650008EB58091B20318161CF461E00E94DA0274
:102660007894CF9108950F931F93CF938091AE03E9
:102670008F5F8093AE0301E511E0C0E08C2F806492
:102680000E94141380E80E94141361E08091B1034A
:102690000E94DA028091B20318161CF460E00E94D6
:1026A000DA0280E090E0F801E80FF91F20812EBDEA
:1026B00000000DB407FEFDCF2EB5019684359105BF
:1026C00091F78091B20318161CF461E00E94DA02BF
:1026D000CF5F0C5A1F4FC63089F680E4CF911F910F
:1026E0000F910C941413CF93DF93BC0182EA93E013
:1026F0000E94FB0DEC0163E271E082EA93E00E942C
:102700009C028C0F9D1FDF91CF91089588EF91E07F
:10271000E1E5F1E0DF019C011D9221503040E1F73D
:102720001092AB031092AC0364E774E082EA93E08A
:102730000E94FB0D0E9433138CB583608CBD8DB558
:102740008E7F8DBD82E391E0EEEFFFE3099510925D
:10275000A8038FE494E00E9473130E9433130E9435
:10276000C01280916903813039F062E370E080E04B
:1027700090E00E94E103F3CF0895AF92BF92CF9211
:10278000DF92EF92FF920F931F93CF93DF93C82EA8
:10279000D12CE601CC5ADC4F9DA1992309F44CC001
:1027A0007E019FEFE91AF90AF70195A1911144C042
:1027B0009EA58601000F111F0C5A1C4FF80134A56D
:1027C00025A5E32FF22FE90FF11DE90FF11D25914A
:1027D00034912F3FFFEF3F0711F41DA22DC039ABFD
:1027E000F601EE0FFF1FE25AFC4F3327220F331F73
:1027F00005A0F6A1E02DE20FF31FA590B490811182
:1028000017C00E94A912F801B3AAA2AAF601EE0FFE
:10281000FF1FEA59FC4F16A215A281E0F70185A31C
:1028200089E08BAF1EAEFE017B9615A2329615A2F3
:1028300029968DA18F5F8DA3DF91CF911F910F916D
:10284000FF90EF90DF90CF90BF90AF90089570E031
:10285000DB01AA0FBB1FAC5ABC4FD4962C91D49766
:10286000D5969C91D597E22FF92FE80FF11DE80F2F
:10287000F11D259134915F9696963C932E939597F2
:10288000F9018591949190917D03989F802D112459
:102890006C5A7C4FFB01B19685A3F901A591B491C7
:1028A0004B2F50E0E82FF0E04E175F0720F4F901BE
:1028B00025913491832FFB01B296899F802D11249D
:1028C00085A30895AF92BF92CF92DF92EF92FF92CD
:1028D0000F931F93CF93DF93182F062FC1E0D3E000
:1028E0008AEFD82E9EEFE92E842F8470C82E842F75
:1028F0008270B82E842F8870A82E4170F42E8C2FF1
:10290000880F8F5FE80ECC2081F04D2F400F6C2F89
:10291000610F82EA93E00E94BA044C2F400F6D2FA2
:10292000610F82EA93E00E94BA04BB2081F0402F3D
:102930004D1B6C2F610F82EA93E00E94BA04402F76
:102940004C1B6D2F610F82EA93E00E94BA04AA200B
:1029500081F04C2F400F612F6D1B82EA93E00E94A3
:10296000BA044D2F400F612F6C1B82EA93E00E9446
:10297000BA04FF2081F0402F4C1B612F6D1B82EAAF
:1029800093E00E94BA04402F4D1B612F6C1B82EA1A
:1029900093E00E94BA04CD1744F4E7FC04C0D15080
:1029A000D394D394ED0CCF5FAACFDF91CF911F9139
:1029B0000F91FF90EF90DF90CF90BF90AF90089570
:1029C0009F92AF92BF92CF92DF92EF92FF920F93BE
:1029D0001F93CF93DF93F82EE62EB22E03E0020F63
:1029E000D0E0C3E08AEFC82E1EEF842F8170982EAE
:1029F000AA24A394A20E4270D42EDF5F802F8B19DD
:102A0000180F9920A1F02C2F220F2A0D4E2D4C1BB0
:102A10006D2F6F0D82EA93E00E942B06202F4E2D22
:102A20004D1B6C2F6F0D82EA93E00E942B06DD2078
:102A3000A1F02C2F220F2A0D4E2D4C1B6F2D6D1B3C
:102A400082EA93E00E942B06202F4E2D4D1B6F2D06
:102A50006C1B82EA93E00E942B06DC1744F417FDFE
:102A600004C0C150C394C3941C0D0E5FC6CFDF9148
:102A7000CF911F910F91FF90EF90DF90CF90BF907B
:102A8000AF909F900895CF92DF92EF92FF920F93B5
:102A90001F93CF93DF936B01770FEE08FF08F7FECC
:102AA0001BC0EC016DE20E94E50C8C014427552708
:102AB000BA014C195D096E097F092AE0CE010E9416
:102AC0009C0C800F911FDF91CF911F910F91FF9070
:102AD000EF90DF90CF9008952AE0B701A601DF9133
:102AE000CF911F910F91FF90EF90DF90CF900C94BA
:102AF0009C0C8091700390917103892BB1F18091AE
:102B000078038F7169F584E10E94A503BC01990FD8
:102B1000880B990B0E94A21A26EE3FE34EEC50E47C
:102B20000E94571B0E94711A9B0170936F03609360
:102B30006E03672B91F084E080936D03E0E7F3E090
:102B400080E0419151912417350718F480936D036B
:102B500008958F5F8430A9F703C08FEF80936D03D2
:102B6000809178038F5F8093780308951092A50376
:102B70001092A4038FE191E09093A3038093A203AA
:102B80000895789484B5826084BD84B5816084BDE5
:102B900085B5826085BD85B5816085BD80916E00FB
:102BA000816080936E00109281008091810082602C
:102BB0008093810080918100816080938100809169
:102BC00080008160809380008091B1008460809358
:102BD000B1008091B00081608093B00080917A0054
:102BE000846080937A0080917A00826080937A007A
:102BF00080917A00816080937A0080917A00806869
:102C000080937A001092C1000E944E06D8E25AE0EA
:102C1000652E712C63E6C62ED12CC5E043E2F42E5E
:102C200011E10E941F0E8823E1F380916B03813034
:102C300009F4CCC2809169038F3F71F480910F0138
:102C40009091100101968430910511F481E090E09B
:102C50009093100180930F0125E14DE263E085E23E
:102C60000E94710BD093AB03C093AC0369E572E093
:102C700082EA93E00E94FB0D60910D0170910E01BC
:102C8000072E000C880B990B0E94A21A9B01AC0125
:102C900060914701709148018091490190914A01EA
:102CA0000E948D1960934301709344018093450104
:102CB00090934601D093AB032FE02093AC0323E322
:102CC00033E343EF50E40E94FF190E94250D25E1F4
:102CD0004DE269E185E20E94710B60910B017091F8
:102CE0000C01072E000C880B990B0E94A21A4B01B5
:102CF0005C012EE732E149E45EE30E94571B1B01B1
:102D00002C012CE135E64EE25BE3C501B4010E94E3
:102D1000571BA50194010E94571B9B01AC01C201E6
:102D2000B1010E948E1924EA30ED4DEA50E40E9470
:102D30008D194B015C016091090170910A01072E08
:102D4000000C880B990B0E94A21A9B01AC01C501D3
:102D5000B4010E948E1960934701709348018093DB
:102D6000490190934A01D093AB036BE16093AC03AC
:102D700061E572E082EA93E00E94FB0DD093AB0321
:102D800085E28093AC036091470170914801809186
:102D9000490190914A010E94250D1092AB03F092D7
:102DA000AC036DE472E082EA93E00E94FB0D2AE03E
:102DB0004CE061E28FE00E94710B1093AB03F09244
:102DC000AC0360910B0170910C0182EA93E00E94C8
:102DD000431580910F01909110010397E9F421E2CE
:102DE000E22E07E12EE144E161E281E10E942F0A37
:102DF0003BE2E32E2EE244E16BE281E10E942F0AE6
:102E00008091660381508E3F08F4E3C1809168038E
:102E100081508E3F08F4F0C11092AB0304E100939F
:102E2000AC0369E472E082EA93E00E94FB0D2AE0C1
:102E300044E162E18FE00E94710B1093AB030093B9
:102E4000AC0360910D0170910E0182EA93E00E9443
:102E500043151093AB03C093AC038091070190918D
:102E600008010E94EC0C8AE18093AB03C093AC0391
:102E700080910501909106010E94EC0C80910F0158
:102E800090911001029709F0B9C0809167038150B9
:102E90008E3F50F48091410190914201892B21F4A1
:102EA00070924201609241018091650381508E3F92
:102EB00050F480914101909142010A9721F41092BF
:102EC0004201109241018091660381508E3FF0F4DF
:102ED000A0904101B090420107E10A0D44E14A0D82
:102EE00032E1E32E2FE062E181E18A0D0E944D0A7A
:102EF0009AE0A916B10409F092C180910501909160
:102F00000601019690930601809305018091680364
:102F100081508E3FF0F4A0904101B090420107E152
:102F20000A0D44E14A0D2CE1E22E2FE16CE181E132
:102F30008A0D0E944D0A2AE0A216B10409F07CC154
:102F4000809105019091060101979093060180936D
:102F5000050180914101A7E19A2E980EB4E1AB2EB4
:102F6000A80E01E1B02EB80E82E1E82E092D2FE067
:102F70004A2D62E18B2D0E942F0A9CE1E92E2FE160
:102F80004A2D6CE18B2D0E942F0A40910701509130
:102F90000801809105019091060164E6649F90010B
:102FA000659F300D1124280F391F30930E01209397
:102FB0000D0157FF0BC0109208011092070197FFF7
:102FC00012C0109206011092050102C097FDF9CFC0
:102FD00080910701909108018436910524F0D092E8
:102FE0000801C09207018091050190910601843685
:102FF000910524F0D0920601C09205011092AB0316
:10300000C093AC0365E472E082EA93E00E94FB0D9A
:103010001093AB03C093AC03809103019091040122
:103020000E94EC0C8AE18093AB03C093AC038091C7
:103030000101909102010E94EC0C2AE044E163E05E
:103040008FE00E94710B80910F0190911001019708
:1030500009F0E7CD8091670381508E3F50F4809155
:10306000410190914201892B21F4709242016092BA
:1030700041018091650381508E3F50F48091410160
:10308000909142010A9721F410924201109241015D
:103090008091660381508E3FF0F4A0904101B09082
:1030A000420107E10A0D44E14A0D93E0E92E20E0D8
:1030B00063E081E18A0D0E944D0A6AE0A616B10420
:1030C00009F0C7C08091010190910201019690938F
:1030D0000201809301018091680381508E3FF0F4DA
:1030E000A0904101B090420107E10A0D44E14A0D70
:1030F0008DE0E82E20E16DE081E18A0D0E944D0A0D
:103100008AE0A816B10409F0B1C080910101909144
:103110000201019790930201809301018091410186
:1031200067E1B62EB80E74E1F72EF80E11E1180F14
:10313000E3E0EE2E0B2D20E04F2D63E0812F0E9467
:103140002F0AFDE0EF2E20E14F2D6DE0812F0E9430
:103150002F0A409103015091040180910101909147
:10316000020164E6649F9001659F300D1124280FD1
:10317000391F30930A012093090157FF0BC01092A9
:1031800004011092030197FF12C0109202011092E5
:10319000010102C097FDF9CF8091030190910401D4
:1031A0008436910524F0D0920401C09203018091ED
:1031B000010190910201843691050CF42FCD83E634
:1031C00090E0909302018093010127CD0E944E066A
:1031D00031CD51E2E52E07E12EE144E161E281E1EA
:1031E0000E944D0A80910B0190910C0101969093E1
:1031F0000C0180930B010ACE4BE2E42E07E12EE294
:1032000044E16BE281E10E944D0A80910B019091B3
:103210000C01019790930C0180930B01FDCDAB281D
:1032200009F074CE80910701909108010196909366
:103230000801809307016ACEAB2809F08ACE8091FD
:10324000070190910801019790930801809307016D
:1032500080CEAB2809F03FCF80910301909104010B
:103260000196909304018093030135CFAB2809F0B8
:1032700055CF80910301909104010197909304012F
:10328000809303014BCFDB018F939F930E94ED1B33
:10329000BF91AF91A29F800D911DA39F900DB29FF2
:1032A000900D11240895991B79E004C0991F961779
:1032B00008F0961B881F7A95C9F78095089597FBAB
:1032C000072E16F4009407D077FD09D00E947319D9
:1032D00007FC05D03EF4909581959F4F0895709519
:1032E00061957F4F0895AA1BBB1B51E107C0AA1F20
:1032F000BB1FA617B70710F0A61BB70B881F991F97
:103300005A95A9F780959095BC01CD010895EE0FCF
:10331000FF1F0590F491E02D09945058BB27AA2770
:103320000E94A5190C94181B0E940A1B38F00E94D9
:10333000111B20F039F49F3F19F426F40C94071B5D
:103340000EF4E095E7FB0C94011BE92F0E94291B6A
:1033500058F3BA17620773078407950720F079F4CA
:10336000A6F50C944B1B0EF4E0950B2EBA2FA02D56
:103370000B01B90190010C01CA01A0011124FF2722
:10338000591B99F0593F50F4503E68F11A16F0401D
:10339000A22F232F342F4427585FF3CF469537951C
:1033A0002795A795F0405395C9F77EF41F16BA0BE1
:1033B000620B730B840BBAF09150A1F0FF0FBB1F8F
:1033C000661F771F881FC2F70EC0BA0F621F731FD8
:1033D000841F48F4879577956795B795F7959E3F35
:1033E00008F0B0CF9395880F08F09927EE0F9795C6
:1033F000879508950E94DD1A08F481E008950E94DF
:10340000131A0C94181B0E94111B58F00E940A1BDF
:1034100040F029F45F3F29F00C94011B51110C94EA
:103420004C1B0C94071B0E94291B68F39923B1F3D2
:10343000552391F3951B550BBB27AA2762177307DA
:10344000840738F09F5F5F4F220F331F441FAA1F6E
:10345000A9F335D00E2E3AF0E0E832D0915050402A
:10346000E695001CCAF72BD0FE2F29D0660F771FD8
:10347000881FBB1F261737074807AB07B0E809F0BE
:10348000BB0B802DBF01FF2793585F4F3AF09E3F43
:10349000510578F00C94011B0C944C1B5F3FE4F336
:1034A000983ED4F3869577956795B795F7959F5F86
:1034B000C9F7880F911D9695879597F90895E1E0D2
:1034C000660F771F881FBB1F621773078407BA0731
:1034D00020F0621B730B840BBA0BEE1F88F7E0958C
:1034E00008950E94311B88F09F5798F0B92F9927B3
:1034F000B751B0F0E1F0660F771F881F991F1AF0DF
:10350000BA95C9F714C0B13091F00E944B1BB1E0DD
:1035100008950C944B1B672F782F8827B85F39F0DC
:10352000B93FCCF3869577956795B395D9F73EF477
:1035300090958095709561957F4F8F4F9F4F08951F
:10354000E89409C097FB3EF490958095709561953D
:103550007F4F8F4F9F4F9923A9F0F92F96E9BB27F3
:103560009395F695879577956795B795F111F8CF6F
:10357000FAF4BB0F11F460FF1BC06F5F7F4F8F4FDA
:103580009F4F16C0882311F096E911C0772321F0D0
:103590009EE8872F762F05C0662371F096E8862F68
:1035A00070E060E02AF09A95660F771F881FDAF7BF
:1035B000880F9695879597F90895990F0008550FEC
:1035C000AA0BE0E8FEEF16161706E807F907C0F0A9
:1035D00012161306E407F50798F0621B730B840BB1
:1035E000950B39F40A2661F0232B242B252B21F48B
:1035F00008950A2609F4A140A6958FEF811D811D2B
:10360000089597F99F6780E870E060E008959FEF64
:1036100080EC089500240A94161617061806090669
:10362000089500240A941216130614060506089538
:10363000092E0394000C11F4882352F0BB0F40F4C0
:10364000BF2B11F460FF04C06F5F7F4F8F4F9F4F00
:10365000089557FD9058440F551F59F05F3F71F082
:103660004795880F97FB991F61F09F3F79F08795E9
:103670000895121613061406551FF2CF4695F1DF72
:1036800008C0161617061806991FF1CF8695710502
:10369000610508940895E894BB2766277727CB0136
:1036A00097F908950E94DD1A08F48FEF08950E949B
:1036B0006A1B0C94181B0E940A1B38F00E94111BF5
:1036C00020F0952311F00C94011B0C94071B11247E
:1036D0000C944C1B0E94291B70F3959FC1F3950F0E
:1036E00050E0551F629FF001729FBB27F00DB11D86
:1036F000639FAA27F00DB11DAA1F649F6627B00D16
:10370000A11D661F829F2227B00DA11D621F739FFE
:10371000B00DA11D621F839FA00D611D221F749F0C
:103720003327A00D611D231F849F600D211D822F53
:10373000762F6A2F11249F5750409AF0F1F088237A
:103740004AF0EE0FFF1FBB1F661F771F881F9150A7
:103750005040A9F79E3F510580F00C94011B0C943A
:103760004C1B5F3FE4F3983ED4F3869577956795BD
:10377000B795F795E7959F5FC1F7FE2B880F911DD1
:103780009695879597F908950E94DD1A880B990BF5
:10379000089581E090E0F8940C94291C052E97FB85
:1037A0001EF400940E94E51B57FD07D00E94F81BF1
:1037B00007FC03D04EF40C94E51B509540953095D2
:1037C00021953F4F4F4F5F4F08959095809570958D
:1037D00061957F4F8F4F9F4F08950E941A1CA59FA0
:1037E000900DB49F900DA49F800D911D11240895FC
:1037F000A1E21A2EAA1BBB1BFD010DC0AA1FBB1FF5
:10380000EE1FFF1FA217B307E407F50720F0A21B66
:10381000B30BE40BF50B661F771F881F991F1A94D3
:1038200069F760957095809590959B01AC01BD01FD
:10383000CF010895A29FB001B39FC001A39F700D57
:10384000811D1124911DB29F700D811D1124911DA8
:063850000895F894FFCF7B
:103856000146000A0014000A002E044100FC030180
:10386600000000DB038000010000000000000035BE
:10387600058F090D0A006E616E00696E66006F762F
:0A38860066004C4F4144455200001B
:00000001FF
